S01B00002E2F44656275672F666C6970666C6F705F6972712E7331395F
S315200000000248854600F064F8FEE7C04600C001209D
S3152000001080B500AF094B1B68082213400AD0084B55
S315200000201B685A1C064B1A60044B1A68034B08219E
S315200000300A431A60C046BD4680BDC046143C0140F6
S31520000040EC00002080B500AF174B184A1A60184BF9
S315200000501A68174B17490A401A60154B1A68144B31
S315200000608021C9010A431A60134B1A68124B0821D2
S315200000700A431A60114B1A68104B08210A431A606A
S315200000800F4B1A680E4B08218A431A600D4B1A68CB
S315200000900C4B802189000A431A600B4B0B4A1A60CD
S315200000A0C046BD4680BDC046000C024055550000E6
S315200000B008380140FF0FFFFF003C01400C3C014087
S315200000C0083C014000E100E064C00120110000204E
S315200000D080B500AFFFF7B6FF024B1A68024BD2B2CB
S315200000E01A70F9E7EC000020140C02400000000012
S70520000000DA
