S01D00002E2F44656275672F67726170686963646973706C61792E73313990
S315200000000248854600F052FBFEE7C04600C00120AC
S3152000001080B500AF094B00221A60094B29221A60CD
S31520000020084B00221A60054B05221A70C046034B66
S3152000003000221A60C046BD4680BDC04610E000E0E2
S3152000004014E000E018E000E080B500AF094B002284
S315200000501A60094B53221A60084B00221A60054B7E
S3152000006005221A70C046034B00221A60C046BD46C0
S3152000007080BDC04610E000E014E000E018E000E09B
S3152000008080B584B000AF78600023FB600DE00023CC
S31520000090BB6004E0FFF7BCFFBB680133BB60BB68F5
S315200000A0032BF7DDFB680133FB60FB687A689A4215
S315200000B0EDD8C046BD4604B080BD80B584B000AF43
S315200000C0786011E00023FB600AE0FFF7A1FFFFF74D
S315200000D09FFFFFF79DFFFFF79BFFFB680133FB6048
S315200000E0FB68064A9342F0DD7B685A1E7A60002B35
S315200000F0E8D1C046BD4604B080BDC046E703000037
S3152000010080B584B000AF0200FB1D1A700F4A0F2085
S315200001103B1812781A703B183A18127804218A4331
S315200001201A70FB1D1B785BB2042293435AB23B180C
S315200001301B785BB213435AB23B181A70034A3B181A
S315200001401B781370C046BD4604B080BD1410024013
S3152000015080B584B000AF0200FB1D1A700F4A0F2035
S315200001603B1812781A703B183A18127804218A43E1
S315200001701A70FB1D1B785BB2DB435BB23A18127810
S3152000018052B213405AB23B181A70044A3B181B78D5
S315200001901370C046BD4604B080BDC0461410024050
S315200001A080B582B000AF0200FB1D1A70FB1D1B78C4
S315200001B0082B0CD002DC002B05D01DE0102B0DD017
S315200001C0182B12D018E01820FFF7C2FF14E00820E1
S315200001D0FFF796FF1020FFF7BBFF0DE00820FFF783
S315200001E0B7FF1020FFF78CFF06E00820FFF788FFF7
S315200001F01020FFF785FFC046C046BD4602B080BD31
S3152000020080B582B000AF4020FFF7A2FF154B164AFB
S315200002101A600120FFF79CFF0220FFF771FFFFF70E
S3152000022013FF4020FFF76CFFFFF70EFF0F4B1B78E5
S31520000230DAB2FB1D7F218A431A704020FFF788FF20
S31520000240FFF702FFFB1D1B78002B00D0E9E7C04615
S315200002504020FFF755FF034B054A1A60C046BD46AE
S3152000026002B080BD0010024055550000111002401A
S315200002705555555580B584B000AF0200FB1D1A7048
S315200002804020FFF765FF1C4B1C4A1A600320FFF72E
S3152000029037FFFB1D1B781800FFF782FFFFF7D4FE00
S315200002A04020FFF72DFFFFF7CFFE154A0F23FB183F
S315200002B012781A704020FFF74BFF0F4B114A1A6035
S315200002C0FB1D1B780822134004D00820FFF768FF87
S315200002D0FFF796FFFB1D1B781022134004D0102039
S315200002E0FFF75EFFFFF78CFF0F23FB181B78180024
S315200002F0BD4604B080BDC0460010024055550000E2
S31520000300111002405555555580B582B000AF0200F8
S31520000310FB1D1A70BB1D0A1C1A70194AFB1D1B787F
S315200003201370BB1D1B781800FFF73AFFFFF78CFEF2
S315200003304020FFF7E5FEFFF787FE4020FFF708FF86
S31520000340BB1D1B78002B04D00820FFF729FFFFF7E1
S3152000035057FFBB1D1B78002B04D01020FFF720FF72
S31520000360FFF74EFF064B00221A704020FFF7C8FE0B
S315200003700020FFF715FFC046BD4602B080BDC0462F
S315200003801510024080B582B000AF0200FB1D1A7026
S31520000390BB1D0A1C1A704020FFF7DAFEBB1D1B7816
S315200003A01800FFF7FDFE0120FFF7D2FE0220FFF71F
S315200003B0CFFEBB1D1A78FB1D1B7811001800FFF716
S315200003C0A3FFC046BD4602B080BD80B582B000AF57
S315200003D00200FB1D1A70BB1D0A1C1A704020FFF775
S315200003E0B7FEBB1D1B781800FFF7DAFE0120FFF7CA
S315200003F087FE0220FFF7ACFEBB1D1A78FB1D1B787B
S3152000040011001800FFF780FFC046BD4602B080BD30
S3152000041080B582B000AF0200FB1D1A70FB1D1B7851
S315200004201800FFF727FFFB1D1B781800FFF722FF98
S3152000043003001800BD4602B080BD80B500AF034B57
S31520000440034A1A60C046BD4680BDC0460010024021
S315200004505555555580B500AF4020FFF751FE0A206F
S31520000460FFF70EFE0820FFF773FE1020FFF770FE41
S315200004702020FFF76DFE4020FFF76AFE1E20FFF7C3
S315200004801CFE2020FFF73CFE6420FFF716FE1821F5
S315200004903E20FFF777FF18213F20FFF773FF182133
S315200004A0C020FFF76FFF18214020FFF76BFF1821B0
S315200004B0B820FFF767FF0020FFF772FEC046BD4653
S315200004C080BD80B582B000AF00237B601EE07B68D4
S315200004D05BB24822524213435BB2DBB218211800AA
S315200004E0FFF712FF18214020FFF70EFF00233B6085
S315200004F006E018210020FFF768FF3B6801333B60C8
S315200005003B683F2BF5DD7B6801337B607B68072BDF
S31520000510DDDDC046BD4602B080BDB0B588B000AFB7
S31520000520F860B9607A60FB68002B00DCB6E0FB68F7
S31520000530802B00DDB2E0BB68002B00DCAEE0BB68A0
S31520000540402B00DDAAE0BB68013B002B00DA073315
S31520000550DB10BB61BB68013B524A134004D5013B0B
S315200005600822524213430133072B2CD89A004E4BB4
S31520000570D3181B689F461F23FB1801221A7022E0FE
S315200005801F23FB1802221A701DE01F23FB180422CA
S315200005901A7018E01F23FB1808221A7013E01F2375
S315200005A0FB1810221A700EE01F23FB1820221A7047
S315200005B009E01F23FB1840221A7004E01F23FB18B2
S315200005C080221A70C0467B68002B05D11F22BB18DB
S315200005D0BA181278D2431A70FB68402B07DD1E2307
S315200005E0FB1810221A70FB68413BFB6006E01E23B5
S315200005F0FB1808221A70FB68013BFB60FB685BB2A4
S31520000600402213435BB2DAB21E257B191B781900F0
S315200006101000FFF7B7FEBB695BB248225242134374
S315200006205BB2DAB27B191B7819001000FFF7AAFE1D
S315200006301723FC187B191B781800FFF7E9FE030027
S315200006402370FB685BB2402213435BB2DAB27B199C
S315200006501B7819001000FFF795FE7B68002B09D048
S315200006601F22BB18B9181722BA18097812780A431C
S315200006701A7008E01F22BB18BA18172179181278A9
S3152000068009780A401A701E23FB181A781F23FB18B4
S315200006901B7811001800FFF798FE00E0C046BD4603
S315200006A008B0B0BD070000803C07002080B582B0AE
S315200006B000AFFFF7C2FE00237B6008E07B680122C3
S315200006C00A211800FFF729FF7B6801337B607B68CE
S315200006D07F2BF3D900237B6008E07B680122190079
S315200006E00A20FFF71AFF7B6801337B607B683F2B6C
S315200006F0F3D90520FFF7E1FC00237B6008E07B6847
S3152000070000220A211800FFF708FF7B6801337B606F
S315200007107B687F2BF3D900237B6008E07B6800226F
S3152000072019000A20FFF7F9FE7B6801337B607B689E
S315200007303F2BF3D9C046BD4602B080BD76050020CA
S31520000740800500208A050020940500209E050020B3
S31120000750A8050020B2050020BC050020F2
S70520000000DA
