S01B00002E2F44656275672F6173636969646973706C61792E73313967
S315200000000248854600F0E0F9FEE7C04600C0012020
S3152000001080B584B000AF0200FB1D1A700C4A0F2178
S315200000207B1812781A70FA1D7B1812781B781343E6
S31520000030DAB208007B1804210A431A70044A010028
S315200000407B181B781370C046BD4604B080BDC046E1
S315200000501410024080B584B000AF0200FB1D1A7058
S315200000600D4A0F217B1812781A70FB1D1B785BB284
S31520000070DB435BB27A18127852B213405BB2042289
S3152000008013435AB27B181A70034A7B181B781370D5
S31520000090C046BD4604B080BD1410024080B582B073
S315200000A000AF0200FB1D1A704020FFF7B1FF064A81
S315200000B0FB1D1B78137000F08BF84020FFF7CAFF5A
S315200000C0C046BD4602B080BD1510024080B582B044
S315200000D000AF0200FB1D1A700120FFF7BBFF0220B4
S315200000E0FFF7B8FFFB1D1B781800FFF7D7FFC046A8
S315200000F0BD4602B080BD80B582B000AF78600120D9
S31520000100FFF786FF0220FFF7A5FF7B68DBB218000A
S31520000110FFF7C4FFC046BD4602B080BD80B582B0A1
S3152000012000AF4020FFF774FF00F052F800F050F8BF
S31520000130064AFB1D12781A704020FFF78BFFFB1D25
S315200001401B781800BD4602B080BDC0461110024083
S3152000015090B583B000AF0B4B0B4A1A600120FFF716
S3152000016079FF0220FFF754FFFC1DFFF7D7FF03009E
S315200001702370044B054A1A60FB1D1B781800BD46E8
S3152000018003B090BD001002405555000055555555F9
S3152000019090B583B000AF0B4B0B4A1A600120FFF7D6
S315200001A037FF0220FFF734FFFC1DFFF7B7FF0300E0
S315200001B02370044B054A1A60FB1D1B781800BD46A8
S315200001C003B090BD001002405555000055555555B9
S315200001D080B500AF094B00221A60094B29221A600C
S315200001E0084B00221A60054B05221A70C046034BA5
S315200001F000221A60C046BD4680BDC04610E000E021
S3152000020014E000E018E000E080B584B000AF78602C
S315200002100023FB600DE00023BB6004E0FFF7D8FF5E
S31520000220BB680133BB60BB68032BF7DDFB6801337A
S31520000230FB60FB687A689A42EDD8C046BD4604B09A
S3152000024080BD80B584B000AF786011E00023FB60EC
S315200002500AE0FFF7BDFFFFF7BBFFFFF7B9FFFFF788
S31520000260B7FFFB680133FB60FB68064A9342F0DD6B
S315200002707B685A1E7A60002BE8D1C046BD4604B082
S3152000028080BDC046E703000080B500AFC046FFF73B
S315200002905FFF03001A0080231340802BF7D008202D
S315200002A0FFF7B2FF3820FFF711FF2720FFF7ACFF3B
S315200002B0C046FFF74DFF03001A0080231340802B12
S315200002C0F7D00820FFF7A0FF0E20FFF7FFFE27201C
S315200002D0FFF79AFFC046FFF73BFF03001A00802373
S315200002E01340802BF7D00820FFF78EFF0120FFF761
S315200002F0EDFE0220FFF7A5FFC046FFF729FF03000A
S315200003001A0080231340802BF7D00820FFF77CFFAC
S315200003100620FFF7DBFE2720FFF776FFC046BD4607
S3152000032080BD80B584B000AF786039607B68013BC2
S31520000330FB603B68022B02D1FB684033FB60FB6805
S315200003405BB28022524213435BB2DBB21800FFF746
S31520000350BDFE2B20FFF758FFC046BD4604B080BD2A
S3152000036080B582B000AF0200FB1D1A70C046FFF7B1
S31520000370EFFE03001A0080231340802BF7D00820BD
S31520000380FFF742FFFB1D1B781800FFF7B4FE2B205A
S31520000390FFF73AFFC046BD4602B080BD80B500AF2C
S315200003A0054B064A1A60064B00221A80054B034A63
S315200003B01A60C046BD4680BD0010024055555555B1
S315200003C00410024008100240B0B58EB000AF78602D
S315200003D0396020243B19204A23CA23C31168196097
S315200003E012791A710C23FB181C4A23CA23C31168DD
S315200003F019609188998092799A71FFF7CFFFFFF75C
S3152000040043FF01210120FFF78CFF3B197B6306E0A8
S315200004107B6B5A1C7A631B781800FFF7A1FF7B6B56
S315200004201B78002BF4D102210120FFF77AFF0C2341
S31520000430FB187B6306E07B6B5A1C7A631B781800DB
S31520000440FFF78EFF7B6B1B78002BF4D1002318005F
S31520000450BD460EB0B0BDC046600400207404002026
S3152000046020202020202A4E5954542053414C4A2AD9
S3152000047000000000202046494C4950205A4C415447
S30D200004804F4944534B5900007B
S70520000000DA
