S02400002E2F44656275672F666C6970666C6F705F6972715F766563746F7265642E7331399B
S315200000000248854600F0E4F8FEE7C04600C001201D
S3152000001080B500AF0A4B1B68012213400CD0094B58
S315200000201B78DBB2074A01210B43DBB21370064B68
S315200000301B685A1C044B1A60C046BD4680BDC0468C
S31520000040143C014015100240EC01002080B500AFA1
S31520000050094B1B68022213400AD0084B1B78DBB2DF
S31520000060064A02210B43DBB21370054B00221A60AD
S31520000070C046BD4680BDC046143C01401510024016
S31520000080EC01002080B500AF0D4B1B680422134005
S3152000009013D00C4B1B78DBB20A4A04210B43DBB28C
S315200000A01370094B1B78DBB2FF2B03D1064B0022C2
S315200000B01A7002E0044BFF221A70C046BD4680BD6E
S315200000C0143C014015100240150C024080B500AFCB
S315200000D0314B324A1A60324B1A68314B120B1203DB
S315200000E01A602F4B1A682E4B2E490A431A602E4B44
S315200000F01A682D4B01210A431A602B4B1A682A4B8A
S3152000010002210A431A60284B1A68274B04210A4306
S315200001101A60264B1A68254B01210A431A60234B85
S315200001201A68224B02210A431A60204B1A681F4B79
S3152000013004210A431A601E4B1A681D4B01218A436B
S315200001401A601B4B1A681A4B02218A431A60184BF5
S315200001501A68174B04218A431A60164B1A68154BE6
S3152000016040210A431A60134B1A68124B80210A4316
S315200001701A60104B1A680F4B802149000A431A60F7
S315200001800D4B0E4A1A600E4B0E4A1A600E4B0F4A42
S315200001901A60C046BD4680BD000C024055555555D7
S315200001A00838014044040000003C01400C3C01405A
S315200001B0083C014000E100E058C001201100002069
S315200001C05CC001204D00002060C001208500002079
S315200001D080B500AFFFF77AFF024B1A68024BD2B206
S315200001E01A70F9E7EC010020140C02400000000010
S70520000000DA
