S01300002E2F44656275672F6B6170342E733139FE
S315200000000248854600F0D6F8FEE7C04600C001202B
S3152000001080B500AF0E4B0F4A1A600F4B1A680E4B75
S315200000200E490A401A600C4A0B4B12681A600C4B98
S315200000301A680B4B0B490A401A60094B1A68084B81
S31520000040AA21C9030A431A60C046BD4680BDC046E0
S31520000050000C024055550055040C0240FF0FFFFFCF
S315200000600C0C0240FFFF00FF90B587B000AF3B00AD
S31520000070164A13CA13C312681A6001237B6119E05A
S315200000807B69180000F06AF800F03EF803003B6137
S315200000903B69002B0BD0002000F060F87B69013B08
S315200000A09A003B69013BD3183A00D35C09E07B698F
S315200000B001337B617B69042BE2DD002000F04EF8E2
S315200000C0FF231800BD4607B090BDC046CC010020D6
S315200000D0B0B586B000AF0200FB1D1A7008203B1891
S315200000E0074A32CA32C312681A60FB1D1B780549BB
S315200000F03A18D35C0B70C046BD4606B0B0BDC046AC
S31520000100DC010020140C024080B582B000AF124AF8
S31520000110FB1D12781A70FB1D1B780822134001D094
S31520000120042315E0FB1D1B780422134001D0032372
S315200001300EE0FB1D1B780222134001D0022307E0AC
S31520000140FB1D1B780122134001D0012300E0002370
S315200001501800BD4602B080BD110C024080B584B0A7
S3152000016000AF7860114BFB607B68042B19D87B6845
S315200001709A000F4BD3181B689F46FB6810221A70F3
S315200001800FE0FB6820221A700BE0FB6840221A70F1
S3152000019007E0FB6880221A7003E0FB6800221A70D1
S315200001A0C046C046BD4604B080BDC046150C0240C0
S315200001B0EC01002080B500AFFFF72AFFFFF754FFC0
S315200001C003001800FFF784FFF8E7C0460102030A80
S315200001D00405060B0708090C0E000F0D3F065B4FA2
S315200001E0665D7D077F67777C395779719A01002094
S315200001F07A010020820100208A010020920100203D
S70520000000DA
