S01A00002E2F44656275672F7379737469636B5F6972712E733139B2
S315200000000248854600F066F8FEE7C04600C001209B
S3152000001080B500AF0A4B00221A700A4B1B685A1E85
S31520000020084B1A60074B1B68002B02DD00F022F8F4
S3152000003002E0054B01221A60C046BD4680BDC0467F
S3152000004010E000E0100100200C01002080B500AF78
S31520000050044B054A1A60054B054A1A60C046BD4640
S3152000006080BDC046000C0240555555553CC0012068
S315200000701100002080B500AF074B00221A70074BF5
S31520000080A7221A70064B00221A70034B07221A70F9
S31520000090C046BD4680BDC04610E000E014E000E04A
S315200000A018E000E080B582B000AF78607B68002B56
S315200000B008D07A68054B1A60054B00221A60FFF7B4
S315200000C0D9FF00E0C046BD4602B080BD1001002029
S315200000D00C01002080B500AFFFF7B8FF094B0022C6
S315200000E01A70FA239B001800FFF7DCFF064B1B68EB
S315200000F0002B00D1FAE7C046024BFF221A70C046F9
S31520000100BD4680BD140C02400C01002000000000FA
S3092000011000000000C5
S70520000000DA
