S01F00002E2F44656275672F666C6970666C6F705F6972715F61636B2E733139CD
S315200000000248854600F0A6F8FEE7C04600C001205B
S3152000001080B500AF274B1B680822134046D0264BDD
S315200000201B78DBB21A00012313400CD0234B1B781C
S31520000030DBB2224A01210B43DBB21370204B1B6833
S315200000405A1C1F4B1A601C4B1B78DBB21A0002236A
S3152000005013400AD0194B1B78DBB2184A02210B43F6
S31520000060DBB21370164B00221A60134B1B78DBB2DF
S315200000701A000423134013D0104B1B78DBB20F4A0F
S3152000008004210B43DBB213700E4B1B78DBB2FF2B24
S3152000009003D10C4B00221A7002E00A4BFF221A7081
S315200000A0044B1A68034B08210A431A60C046BD4612
S315200000B080BDC046143C014010100240151002407D
S315200000C070010020150C024080B500AF174B184A6E
S315200000D01A60184B1A68174B17490A401A60154BB5
S315200000E01A68144B8021C9010A431A60134B1A68F7
S315200000F0124B08210A431A60114B1A68104B08212B
S315200001000A431A600F4B1A680E4B08218A431A605D
S315200001100D4B1A680C4B802189000A431A600B4B41
S315200001200B4A1A60C046BD4680BDC046000C024040
S315200001305555555508380140FF0FFFFF003C01403B
S315200001400C3C0140083C014000E100E064C0012075
S315200001501100002080B500AFFFF7B6FF024B1A68EA
S31520000160024BD2B21A70F9E770010020140C02403B
S309200001700000000065
S70520000000DA
